{
  "contractName": "NftMarket",
  "abi": [
    {
      "inputs": [],
      "stateMutability": "nonpayable",
      "type": "constructor"
    },
    {
      "anonymous": false,
      "inputs": [
        {
          "indexed": true,
          "internalType": "address",
          "name": "owner",
          "type": "address"
        },
        {
          "indexed": true,
          "internalType": "address",
          "name": "approved",
          "type": "address"
        },
        {
          "indexed": true,
          "internalType": "uint256",
          "name": "tokenId",
          "type": "uint256"
        }
      ],
      "name": "Approval",
      "type": "event"
    },
    {
      "anonymous": false,
      "inputs": [
        {
          "indexed": true,
          "internalType": "address",
          "name": "owner",
          "type": "address"
        },
        {
          "indexed": true,
          "internalType": "address",
          "name": "operator",
          "type": "address"
        },
        {
          "indexed": false,
          "internalType": "bool",
          "name": "approved",
          "type": "bool"
        }
      ],
      "name": "ApprovalForAll",
      "type": "event"
    },
    {
      "anonymous": false,
      "inputs": [
        {
          "indexed": false,
          "internalType": "uint256",
          "name": "tokenId",
          "type": "uint256"
        },
        {
          "indexed": false,
          "internalType": "uint256",
          "name": "price",
          "type": "uint256"
        },
        {
          "indexed": false,
          "internalType": "address",
          "name": "creator",
          "type": "address"
        },
        {
          "indexed": false,
          "internalType": "bool",
          "name": "isListed",
          "type": "bool"
        }
      ],
      "name": "NftItemCreated",
      "type": "event"
    },
    {
      "anonymous": false,
      "inputs": [
        {
          "indexed": true,
          "internalType": "address",
          "name": "from",
          "type": "address"
        },
        {
          "indexed": true,
          "internalType": "address",
          "name": "to",
          "type": "address"
        },
        {
          "indexed": true,
          "internalType": "uint256",
          "name": "tokenId",
          "type": "uint256"
        }
      ],
      "name": "Transfer",
      "type": "event"
    },
    {
      "inputs": [
        {
          "internalType": "address",
          "name": "to",
          "type": "address"
        },
        {
          "internalType": "uint256",
          "name": "tokenId",
          "type": "uint256"
        }
      ],
      "name": "approve",
      "outputs": [],
      "stateMutability": "nonpayable",
      "type": "function"
    },
    {
      "inputs": [
        {
          "internalType": "address",
          "name": "owner",
          "type": "address"
        }
      ],
      "name": "balanceOf",
      "outputs": [
        {
          "internalType": "uint256",
          "name": "",
          "type": "uint256"
        }
      ],
      "stateMutability": "view",
      "type": "function",
      "constant": true
    },
    {
      "inputs": [
        {
          "internalType": "uint256",
          "name": "tokenId",
          "type": "uint256"
        }
      ],
      "name": "getApproved",
      "outputs": [
        {
          "internalType": "address",
          "name": "",
          "type": "address"
        }
      ],
      "stateMutability": "view",
      "type": "function",
      "constant": true
    },
    {
      "inputs": [
        {
          "internalType": "address",
          "name": "owner",
          "type": "address"
        },
        {
          "internalType": "address",
          "name": "operator",
          "type": "address"
        }
      ],
      "name": "isApprovedForAll",
      "outputs": [
        {
          "internalType": "bool",
          "name": "",
          "type": "bool"
        }
      ],
      "stateMutability": "view",
      "type": "function",
      "constant": true
    },
    {
      "inputs": [],
      "name": "listingPrice",
      "outputs": [
        {
          "internalType": "uint256",
          "name": "",
          "type": "uint256"
        }
      ],
      "stateMutability": "view",
      "type": "function",
      "constant": true
    },
    {
      "inputs": [],
      "name": "name",
      "outputs": [
        {
          "internalType": "string",
          "name": "",
          "type": "string"
        }
      ],
      "stateMutability": "view",
      "type": "function",
      "constant": true
    },
    {
      "inputs": [
        {
          "internalType": "uint256",
          "name": "tokenId",
          "type": "uint256"
        }
      ],
      "name": "ownerOf",
      "outputs": [
        {
          "internalType": "address",
          "name": "",
          "type": "address"
        }
      ],
      "stateMutability": "view",
      "type": "function",
      "constant": true
    },
    {
      "inputs": [
        {
          "internalType": "address",
          "name": "from",
          "type": "address"
        },
        {
          "internalType": "address",
          "name": "to",
          "type": "address"
        },
        {
          "internalType": "uint256",
          "name": "tokenId",
          "type": "uint256"
        }
      ],
      "name": "safeTransferFrom",
      "outputs": [],
      "stateMutability": "nonpayable",
      "type": "function"
    },
    {
      "inputs": [
        {
          "internalType": "address",
          "name": "from",
          "type": "address"
        },
        {
          "internalType": "address",
          "name": "to",
          "type": "address"
        },
        {
          "internalType": "uint256",
          "name": "tokenId",
          "type": "uint256"
        },
        {
          "internalType": "bytes",
          "name": "data",
          "type": "bytes"
        }
      ],
      "name": "safeTransferFrom",
      "outputs": [],
      "stateMutability": "nonpayable",
      "type": "function"
    },
    {
      "inputs": [
        {
          "internalType": "address",
          "name": "operator",
          "type": "address"
        },
        {
          "internalType": "bool",
          "name": "approved",
          "type": "bool"
        }
      ],
      "name": "setApprovalForAll",
      "outputs": [],
      "stateMutability": "nonpayable",
      "type": "function"
    },
    {
      "inputs": [
        {
          "internalType": "bytes4",
          "name": "interfaceId",
          "type": "bytes4"
        }
      ],
      "name": "supportsInterface",
      "outputs": [
        {
          "internalType": "bool",
          "name": "",
          "type": "bool"
        }
      ],
      "stateMutability": "view",
      "type": "function",
      "constant": true
    },
    {
      "inputs": [],
      "name": "symbol",
      "outputs": [
        {
          "internalType": "string",
          "name": "",
          "type": "string"
        }
      ],
      "stateMutability": "view",
      "type": "function",
      "constant": true
    },
    {
      "inputs": [
        {
          "internalType": "uint256",
          "name": "tokenId",
          "type": "uint256"
        }
      ],
      "name": "tokenURI",
      "outputs": [
        {
          "internalType": "string",
          "name": "",
          "type": "string"
        }
      ],
      "stateMutability": "view",
      "type": "function",
      "constant": true
    },
    {
      "inputs": [
        {
          "internalType": "address",
          "name": "from",
          "type": "address"
        },
        {
          "internalType": "address",
          "name": "to",
          "type": "address"
        },
        {
          "internalType": "uint256",
          "name": "tokenId",
          "type": "uint256"
        }
      ],
      "name": "transferFrom",
      "outputs": [],
      "stateMutability": "nonpayable",
      "type": "function"
    },
    {
      "inputs": [
        {
          "internalType": "uint256",
          "name": "tokenId",
          "type": "uint256"
        }
      ],
      "name": "getNftItem",
      "outputs": [
        {
          "components": [
            {
              "internalType": "uint256",
              "name": "tokenId",
              "type": "uint256"
            },
            {
              "internalType": "uint256",
              "name": "price",
              "type": "uint256"
            },
            {
              "internalType": "address",
              "name": "creator",
              "type": "address"
            },
            {
              "internalType": "bool",
              "name": "isListed",
              "type": "bool"
            }
          ],
          "internalType": "struct NftMarket.NftItem",
          "name": "",
          "type": "tuple"
        }
      ],
      "stateMutability": "view",
      "type": "function",
      "constant": true
    },
    {
      "inputs": [],
      "name": "listedItemsCount",
      "outputs": [
        {
          "internalType": "uint256",
          "name": "",
          "type": "uint256"
        }
      ],
      "stateMutability": "view",
      "type": "function",
      "constant": true
    },
    {
      "inputs": [
        {
          "internalType": "string",
          "name": "tokenURI",
          "type": "string"
        }
      ],
      "name": "tokenURIExists",
      "outputs": [
        {
          "internalType": "bool",
          "name": "",
          "type": "bool"
        }
      ],
      "stateMutability": "view",
      "type": "function",
      "constant": true
    },
    {
      "inputs": [
        {
          "internalType": "string",
          "name": "tokenURI",
          "type": "string"
        },
        {
          "internalType": "uint256",
          "name": "price",
          "type": "uint256"
        }
      ],
      "name": "mintToken",
      "outputs": [
        {
          "internalType": "uint256",
          "name": "",
          "type": "uint256"
        }
      ],
      "stateMutability": "payable",
      "type": "function",
      "payable": true
    },
    {
      "inputs": [
        {
          "internalType": "uint256",
          "name": "tokenId",
          "type": "uint256"
        }
      ],
      "name": "buyNft",
      "outputs": [],
      "stateMutability": "payable",
      "type": "function",
      "payable": true
    }
  ],
  "bytecode": "0x60806040526658d15e176280006007553480156200001c57600080fd5b506040518060400160405280600c81526020017f4372656174757265734e465400000000000000000000000000000000000000008152506040518060400160405280600481526020017f434e46540000000000000000000000000000000000000000000000000000000081525081600090816200009a91906200032f565b508060019081620000ac91906200032f565b50505062000416565b600081519050919050565b7f4e487b7100000000000000000000000000000000000000000000000000000000600052604160045260246000fd5b7f4e487b7100000000000000000000000000000000000000000000000000000000600052602260045260246000fd5b600060028204905060018216806200013757607f821691505b6020821081036200014d576200014c620000ef565b5b50919050565b60008190508160005260206000209050919050565b60006020601f8301049050919050565b600082821b905092915050565b600060088302620001b77fffffffffffffffffffffffffffffffffffffffffffffffffffffffffffffffff8262000178565b620001c3868362000178565b95508019841693508086168417925050509392505050565b6000819050919050565b6000819050919050565b6000620002106200020a6200020484620001db565b620001e5565b620001db565b9050919050565b6000819050919050565b6200022c83620001ef565b620002446200023b8262000217565b84845462000185565b825550505050565b600090565b6200025b6200024c565b6200026881848462000221565b505050565b5b8181101562000290576200028460008262000251565b6001810190506200026e565b5050565b601f821115620002df57620002a98162000153565b620002b48462000168565b81016020851015620002c4578190505b620002dc620002d38562000168565b8301826200026d565b50505b505050565b600082821c905092915050565b60006200030460001984600802620002e4565b1980831691505092915050565b60006200031f8383620002f1565b9150826002028217905092915050565b6200033a82620000b5565b67ffffffffffffffff811115620003565762000355620000c0565b5b6200036282546200011e565b6200036f82828562000294565b600060209050601f831160018114620003a7576000841562000392578287015190505b6200039e858262000311565b8655506200040e565b601f198416620003b78662000153565b60005b82811015620003e157848901518255600182019150602085019450602081019050620003ba565b86831015620004015784890151620003fd601f891682620002f1565b8355505b6001600288020188555050505b505050505050565b61359080620004266000396000f3fe6080604052600436106101145760003560e01c80636f1a0af5116100a0578063c046372c11610064578063c046372c146103c6578063c78f19f9146103f6578063c87b56dd14610421578063ccb4918d1461045e578063e985e9c51461048957610114565b80636f1a0af5146102cf57806370a082311461030c57806395d89b4114610349578063a22cb46514610374578063b88d4fde1461039d57610114565b806323b872dd116100e757806323b872dd146101e7578063243adbdd1461021057806342842e0e1461022c57806343d32ae7146102555780636352211e1461029257610114565b806301ffc9a71461011957806306fdde0314610156578063081812fc14610181578063095ea7b3146101be575b600080fd5b34801561012557600080fd5b50610140600480360381019061013b9190611f1f565b6104c6565b60405161014d9190611f67565b60405180910390f35b34801561016257600080fd5b5061016b6105a8565b6040516101789190612012565b60405180910390f35b34801561018d57600080fd5b506101a860048036038101906101a3919061206a565b61063a565b6040516101b591906120d8565b60405180910390f35b3480156101ca57600080fd5b506101e560048036038101906101e0919061211f565b610680565b005b3480156101f357600080fd5b5061020e6004803603810190610209919061215f565b610797565b005b61022a6004803603810190610225919061206a565b6107f7565b005b34801561023857600080fd5b50610253600480360381019061024e919061215f565b61095f565b005b34801561026157600080fd5b5061027c600480360381019061027791906122e7565b61097f565b6040516102899190611f67565b60405180910390f35b34801561029e57600080fd5b506102b960048036038101906102b4919061206a565b6109bb565b6040516102c691906120d8565b60405180910390f35b3480156102db57600080fd5b506102f660048036038101906102f1919061206a565b610a6c565b60405161030391906123b2565b60405180910390f35b34801561031857600080fd5b50610333600480360381019061032e91906123cd565b610b1e565b6040516103409190612409565b60405180910390f35b34801561035557600080fd5b5061035e610bd5565b60405161036b9190612012565b60405180910390f35b34801561038057600080fd5b5061039b60048036038101906103969190612450565b610c67565b005b3480156103a957600080fd5b506103c460048036038101906103bf9190612531565b610c7d565b005b6103e060048036038101906103db91906125b4565b610cdf565b6040516103ed9190612409565b60405180910390f35b34801561040257600080fd5b5061040b610def565b6040516104189190612409565b60405180910390f35b34801561042d57600080fd5b506104486004803603810190610443919061206a565b610df5565b6040516104559190612012565b60405180910390f35b34801561046a57600080fd5b50610473610f07565b6040516104809190612409565b60405180910390f35b34801561049557600080fd5b506104b060048036038101906104ab9190612610565b610f18565b6040516104bd9190611f67565b60405180910390f35b60007f80ac58cd000000000000000000000000000000000000000000000000000000007bffffffffffffffffffffffffffffffffffffffffffffffffffffffff1916827bffffffffffffffffffffffffffffffffffffffffffffffffffffffff1916148061059157507f5b5e139f000000000000000000000000000000000000000000000000000000007bffffffffffffffffffffffffffffffffffffffffffffffffffffffff1916827bffffffffffffffffffffffffffffffffffffffffffffffffffffffff1916145b806105a157506105a082610fac565b5b9050919050565b6060600080546105b79061267f565b80601f01602080910402602001604051908101604052809291908181526020018280546105e39061267f565b80156106305780601f1061060557610100808354040283529160200191610630565b820191906000526020600020905b81548152906001019060200180831161061357829003601f168201915b5050505050905090565b600061064582611016565b6004600083815260200190815260200160002060009054906101000a900473ffffffffffffffffffffffffffffffffffffffff169050919050565b600061068b826109bb565b90508073ffffffffffffffffffffffffffffffffffffffff168373ffffffffffffffffffffffffffffffffffffffff16036106fb576040517f08c379a00000000000000000000000000000000000000000000000000000000081526004016106f290612722565b60405180910390fd5b8073ffffffffffffffffffffffffffffffffffffffff1661071a611061565b73ffffffffffffffffffffffffffffffffffffffff161480610749575061074881610743611061565b610f18565b5b610788576040517f08c379a000000000000000000000000000000000000000000000000000000000815260040161077f906127b4565b60405180910390fd5b6107928383611069565b505050565b6107a86107a2611061565b82611122565b6107e7576040517f08c379a00000000000000000000000000000000000000000000000000000000081526004016107de90612846565b60405180910390fd5b6107f28383836111b7565b505050565b6000600b6000838152602001908152602001600020600101549050600061081d836109bb565b90508073ffffffffffffffffffffffffffffffffffffffff163373ffffffffffffffffffffffffffffffffffffffff160361088d576040517f08c379a0000000000000000000000000000000000000000000000000000000008152600401610884906128b2565b60405180910390fd5b8134146108cf576040517f08c379a00000000000000000000000000000000000000000000000000000000081526004016108c69061291e565b60405180910390fd5b6000600b600085815260200190815260200160002060020160146101000a81548160ff021916908315150217905550610908600861141d565b6109138133856111b7565b8073ffffffffffffffffffffffffffffffffffffffff166108fc349081150290604051600060405180830381858888f19350505050158015610959573d6000803e3d6000fd5b50505050565b61097a83838360405180602001604052806000815250610c7d565b505050565b600060011515600a83604051610995919061297a565b908152602001604051809103902060009054906101000a900460ff161515149050919050565b6000806002600084815260200190815260200160002060009054906101000a900473ffffffffffffffffffffffffffffffffffffffff169050600073ffffffffffffffffffffffffffffffffffffffff168173ffffffffffffffffffffffffffffffffffffffff1603610a63576040517f08c379a0000000000000000000000000000000000000000000000000000000008152600401610a5a906129dd565b60405180910390fd5b80915050919050565b610a74611e73565b600b600083815260200190815260200160002060405180608001604052908160008201548152602001600182015481526020016002820160009054906101000a900473ffffffffffffffffffffffffffffffffffffffff1673ffffffffffffffffffffffffffffffffffffffff1673ffffffffffffffffffffffffffffffffffffffff1681526020016002820160149054906101000a900460ff1615151515815250509050919050565b60008073ffffffffffffffffffffffffffffffffffffffff168273ffffffffffffffffffffffffffffffffffffffff1603610b8e576040517f08c379a0000000000000000000000000000000000000000000000000000000008152600401610b8590612a6f565b60405180910390fd5b600360008373ffffffffffffffffffffffffffffffffffffffff1673ffffffffffffffffffffffffffffffffffffffff168152602001908152602001600020549050919050565b606060018054610be49061267f565b80601f0160208091040260200160405190810160405280929190818152602001828054610c109061267f565b8015610c5d5780601f10610c3257610100808354040283529160200191610c5d565b820191906000526020600020905b815481529060010190602001808311610c4057829003601f168201915b5050505050905090565b610c79610c72611061565b8383611479565b5050565b610c8e610c88611061565b83611122565b610ccd576040517f08c379a0000000000000000000000000000000000000000000000000000000008152600401610cc490612846565b60405180910390fd5b610cd9848484846115e5565b50505050565b6000610cea8361097f565b15610d2a576040517f08c379a0000000000000000000000000000000000000000000000000000000008152600401610d2190612adb565b60405180910390fd5b6007543414610d6e576040517f08c379a0000000000000000000000000000000000000000000000000000000008152600401610d6590612b6d565b60405180910390fd5b610d786009611641565b610d826008611641565b6000610d8e6009611657565b9050610d9a3382611665565b610da48185611683565b610dae81846116f0565b6001600a85604051610dc0919061297a565b908152602001604051809103902060006101000a81548160ff0219169083151502179055508091505092915050565b60075481565b6060610e0082611016565b6000600660008481526020019081526020016000208054610e209061267f565b80601f0160208091040260200160405190810160405280929190818152602001828054610e4c9061267f565b8015610e995780601f10610e6e57610100808354040283529160200191610e99565b820191906000526020600020905b815481529060010190602001808311610e7c57829003601f168201915b505050505090506000610eaa611840565b90506000815103610ebf578192505050610f02565b600082511115610ef4578082604051602001610edc929190612b8d565b60405160208183030381529060405292505050610f02565b610efd84611857565b925050505b919050565b6000610f136008611657565b905090565b6000600560008473ffffffffffffffffffffffffffffffffffffffff1673ffffffffffffffffffffffffffffffffffffffff16815260200190815260200160002060008373ffffffffffffffffffffffffffffffffffffffff1673ffffffffffffffffffffffffffffffffffffffff16815260200190815260200160002060009054906101000a900460ff16905092915050565b60007f01ffc9a7000000000000000000000000000000000000000000000000000000007bffffffffffffffffffffffffffffffffffffffffffffffffffffffff1916827bffffffffffffffffffffffffffffffffffffffffffffffffffffffff1916149050919050565b61101f816118bf565b61105e576040517f08c379a0000000000000000000000000000000000000000000000000000000008152600401611055906129dd565b60405180910390fd5b50565b600033905090565b816004600083815260200190815260200160002060006101000a81548173ffffffffffffffffffffffffffffffffffffffff021916908373ffffffffffffffffffffffffffffffffffffffff160217905550808273ffffffffffffffffffffffffffffffffffffffff166110dc836109bb565b73ffffffffffffffffffffffffffffffffffffffff167f8c5be1e5ebec7d5bd14f71427d1e84f3dd0314c0f7b2291e5b200ac8c7c3b92560405160405180910390a45050565b60008061112e836109bb565b90508073ffffffffffffffffffffffffffffffffffffffff168473ffffffffffffffffffffffffffffffffffffffff161480611170575061116f8185610f18565b5b806111ae57508373ffffffffffffffffffffffffffffffffffffffff166111968461063a565b73ffffffffffffffffffffffffffffffffffffffff16145b91505092915050565b8273ffffffffffffffffffffffffffffffffffffffff166111d7826109bb565b73ffffffffffffffffffffffffffffffffffffffff161461122d576040517f08c379a000000000000000000000000000000000000000000000000000000000815260040161122490612c23565b60405180910390fd5b600073ffffffffffffffffffffffffffffffffffffffff168273ffffffffffffffffffffffffffffffffffffffff160361129c576040517f08c379a000000000000000000000000000000000000000000000000000000000815260040161129390612cb5565b60405180910390fd5b6112a783838361192b565b6112b2600082611069565b6001600360008573ffffffffffffffffffffffffffffffffffffffff1673ffffffffffffffffffffffffffffffffffffffff16815260200190815260200160002060008282546113029190612d04565b925050819055506001600360008473ffffffffffffffffffffffffffffffffffffffff1673ffffffffffffffffffffffffffffffffffffffff16815260200190815260200160002060008282546113599190612d38565b92505081905550816002600083815260200190815260200160002060006101000a81548173ffffffffffffffffffffffffffffffffffffffff021916908373ffffffffffffffffffffffffffffffffffffffff160217905550808273ffffffffffffffffffffffffffffffffffffffff168473ffffffffffffffffffffffffffffffffffffffff167fddf252ad1be2c89b69c2b068fc378daa952ba7f163c4a11628f55a4df523b3ef60405160405180910390a4611418838383611930565b505050565b60008160000154905060008111611469576040517f08c379a000000000000000000000000000000000000000000000000000000000815260040161146090612db8565b60405180910390fd5b6001810382600001819055505050565b8173ffffffffffffffffffffffffffffffffffffffff168373ffffffffffffffffffffffffffffffffffffffff16036114e7576040517f08c379a00000000000000000000000000000000000000000000000000000000081526004016114de90612e24565b60405180910390fd5b80600560008573ffffffffffffffffffffffffffffffffffffffff1673ffffffffffffffffffffffffffffffffffffffff16815260200190815260200160002060008473ffffffffffffffffffffffffffffffffffffffff1673ffffffffffffffffffffffffffffffffffffffff16815260200190815260200160002060006101000a81548160ff0219169083151502179055508173ffffffffffffffffffffffffffffffffffffffff168373ffffffffffffffffffffffffffffffffffffffff167f17307eab39ab6107e8899845ad3d59bd9653f200f220920489ca2b5937696c31836040516115d89190611f67565b60405180910390a3505050565b6115f08484846111b7565b6115fc84848484611935565b61163b576040517f08c379a000000000000000000000000000000000000000000000000000000000815260040161163290612eb6565b60405180910390fd5b50505050565b6001816000016000828254019250508190555050565b600081600001549050919050565b61167f828260405180602001604052806000815250611abc565b5050565b61168c826118bf565b6116cb576040517f08c379a00000000000000000000000000000000000000000000000000000000081526004016116c290612f48565b60405180910390fd5b806006600084815260200190815260200160002090816116eb9190613114565b505050565b60008111611733576040517f08c379a000000000000000000000000000000000000000000000000000000000815260040161172a90613232565b60405180910390fd5b60405180608001604052808381526020018281526020013373ffffffffffffffffffffffffffffffffffffffff16815260200160011515815250600b6000848152602001908152602001600020600082015181600001556020820151816001015560408201518160020160006101000a81548173ffffffffffffffffffffffffffffffffffffffff021916908373ffffffffffffffffffffffffffffffffffffffff16021790555060608201518160020160146101000a81548160ff0219169083151502179055509050507f470031062672bc0246e132c723a729c4676710ec663a29e86c88678032daddea82823360016040516118349493929190613252565b60405180910390a15050565b606060405180602001604052806000815250905090565b606061186282611016565b600061186c611840565b9050600081511161188c57604051806020016040528060008152506118b7565b8061189684611b17565b6040516020016118a7929190612b8d565b6040516020818303038152906040525b915050919050565b60008073ffffffffffffffffffffffffffffffffffffffff166002600084815260200190815260200160002060009054906101000a900473ffffffffffffffffffffffffffffffffffffffff1673ffffffffffffffffffffffffffffffffffffffff1614159050919050565b505050565b505050565b60006119568473ffffffffffffffffffffffffffffffffffffffff16611c77565b15611aaf578373ffffffffffffffffffffffffffffffffffffffff1663150b7a0261197f611061565b8786866040518563ffffffff1660e01b81526004016119a194939291906132ec565b6020604051808303816000875af19250505080156119dd57506040513d601f19601f820116820180604052508101906119da919061334d565b60015b611a5f573d8060008114611a0d576040519150601f19603f3d011682016040523d82523d6000602084013e611a12565b606091505b506000815103611a57576040517f08c379a0000000000000000000000000000000000000000000000000000000008152600401611a4e90612eb6565b60405180910390fd5b805181602001fd5b63150b7a0260e01b7bffffffffffffffffffffffffffffffffffffffffffffffffffffffff1916817bffffffffffffffffffffffffffffffffffffffffffffffffffffffff191614915050611ab4565b600190505b949350505050565b611ac68383611c9a565b611ad36000848484611935565b611b12576040517f08c379a0000000000000000000000000000000000000000000000000000000008152600401611b0990612eb6565b60405180910390fd5b505050565b606060008203611b5e576040518060400160405280600181526020017f30000000000000000000000000000000000000000000000000000000000000008152509050611c72565b600082905060005b60008214611b90578080611b799061337a565b915050600a82611b8991906133f1565b9150611b66565b60008167ffffffffffffffff811115611bac57611bab6121bc565b5b6040519080825280601f01601f191660200182016040528015611bde5781602001600182028036833780820191505090505b5090505b60008514611c6b57600182611bf79190612d04565b9150600a85611c069190613422565b6030611c129190612d38565b60f81b818381518110611c2857611c27613453565b5b60200101907effffffffffffffffffffffffffffffffffffffffffffffffffffffffffffff1916908160001a905350600a85611c6491906133f1565b9450611be2565b8093505050505b919050565b6000808273ffffffffffffffffffffffffffffffffffffffff163b119050919050565b600073ffffffffffffffffffffffffffffffffffffffff168273ffffffffffffffffffffffffffffffffffffffff1603611d09576040517f08c379a0000000000000000000000000000000000000000000000000000000008152600401611d00906134ce565b60405180910390fd5b611d12816118bf565b15611d52576040517f08c379a0000000000000000000000000000000000000000000000000000000008152600401611d499061353a565b60405180910390fd5b611d5e6000838361192b565b6001600360008473ffffffffffffffffffffffffffffffffffffffff1673ffffffffffffffffffffffffffffffffffffffff1681526020019081526020016000206000828254611dae9190612d38565b92505081905550816002600083815260200190815260200160002060006101000a81548173ffffffffffffffffffffffffffffffffffffffff021916908373ffffffffffffffffffffffffffffffffffffffff160217905550808273ffffffffffffffffffffffffffffffffffffffff16600073ffffffffffffffffffffffffffffffffffffffff167fddf252ad1be2c89b69c2b068fc378daa952ba7f163c4a11628f55a4df523b3ef60405160405180910390a4611e6f60008383611930565b5050565b60405180608001604052806000815260200160008152602001600073ffffffffffffffffffffffffffffffffffffffff1681526020016000151581525090565b6000604051905090565b600080fd5b600080fd5b60007fffffffff0000000000000000000000000000000000000000000000000000000082169050919050565b611efc81611ec7565b8114611f0757600080fd5b50565b600081359050611f1981611ef3565b92915050565b600060208284031215611f3557611f34611ebd565b5b6000611f4384828501611f0a565b91505092915050565b60008115159050919050565b611f6181611f4c565b82525050565b6000602082019050611f7c6000830184611f58565b92915050565b600081519050919050565b600082825260208201905092915050565b60005b83811015611fbc578082015181840152602081019050611fa1565b60008484015250505050565b6000601f19601f8301169050919050565b6000611fe482611f82565b611fee8185611f8d565b9350611ffe818560208601611f9e565b61200781611fc8565b840191505092915050565b6000602082019050818103600083015261202c8184611fd9565b905092915050565b6000819050919050565b61204781612034565b811461205257600080fd5b50565b6000813590506120648161203e565b92915050565b6000602082840312156120805761207f611ebd565b5b600061208e84828501612055565b91505092915050565b600073ffffffffffffffffffffffffffffffffffffffff82169050919050565b60006120c282612097565b9050919050565b6120d2816120b7565b82525050565b60006020820190506120ed60008301846120c9565b92915050565b6120fc816120b7565b811461210757600080fd5b50565b600081359050612119816120f3565b92915050565b6000806040838503121561213657612135611ebd565b5b60006121448582860161210a565b925050602061215585828601612055565b9150509250929050565b60008060006060848603121561217857612177611ebd565b5b60006121868682870161210a565b93505060206121978682870161210a565b92505060406121a886828701612055565b9150509250925092565b600080fd5b600080fd5b7f4e487b7100000000000000000000000000000000000000000000000000000000600052604160045260246000fd5b6121f482611fc8565b810181811067ffffffffffffffff82111715612213576122126121bc565b5b80604052505050565b6000612226611eb3565b905061223282826121eb565b919050565b600067ffffffffffffffff821115612252576122516121bc565b5b61225b82611fc8565b9050602081019050919050565b82818337600083830152505050565b600061228a61228584612237565b61221c565b9050828152602081018484840111156122a6576122a56121b7565b5b6122b1848285612268565b509392505050565b600082601f8301126122ce576122cd6121b2565b5b81356122de848260208601612277565b91505092915050565b6000602082840312156122fd576122fc611ebd565b5b600082013567ffffffffffffffff81111561231b5761231a611ec2565b5b612327848285016122b9565b91505092915050565b61233981612034565b82525050565b612348816120b7565b82525050565b61235781611f4c565b82525050565b6080820160008201516123736000850182612330565b5060208201516123866020850182612330565b506040820151612399604085018261233f565b5060608201516123ac606085018261234e565b50505050565b60006080820190506123c7600083018461235d565b92915050565b6000602082840312156123e3576123e2611ebd565b5b60006123f18482850161210a565b91505092915050565b61240381612034565b82525050565b600060208201905061241e60008301846123fa565b92915050565b61242d81611f4c565b811461243857600080fd5b50565b60008135905061244a81612424565b92915050565b6000806040838503121561246757612466611ebd565b5b60006124758582860161210a565b92505060206124868582860161243b565b9150509250929050565b600067ffffffffffffffff8211156124ab576124aa6121bc565b5b6124b482611fc8565b9050602081019050919050565b60006124d46124cf84612490565b61221c565b9050828152602081018484840111156124f0576124ef6121b7565b5b6124fb848285612268565b509392505050565b600082601f830112612518576125176121b2565b5b81356125288482602086016124c1565b91505092915050565b6000806000806080858703121561254b5761254a611ebd565b5b60006125598782880161210a565b945050602061256a8782880161210a565b935050604061257b87828801612055565b925050606085013567ffffffffffffffff81111561259c5761259b611ec2565b5b6125a887828801612503565b91505092959194509250565b600080604083850312156125cb576125ca611ebd565b5b600083013567ffffffffffffffff8111156125e9576125e8611ec2565b5b6125f5858286016122b9565b925050602061260685828601612055565b9150509250929050565b6000806040838503121561262757612626611ebd565b5b60006126358582860161210a565b92505060206126468582860161210a565b9150509250929050565b7f4e487b7100000000000000000000000000000000000000000000000000000000600052602260045260246000fd5b6000600282049050600182168061269757607f821691505b6020821081036126aa576126a9612650565b5b50919050565b7f4552433732313a20617070726f76616c20746f2063757272656e74206f776e6560008201527f7200000000000000000000000000000000000000000000000000000000000000602082015250565b600061270c602183611f8d565b9150612717826126b0565b604082019050919050565b6000602082019050818103600083015261273b816126ff565b9050919050565b7f4552433732313a20617070726f76652063616c6c6572206973206e6f7420746f60008201527f6b656e206f776e6572206e6f7220617070726f76656420666f7220616c6c0000602082015250565b600061279e603e83611f8d565b91506127a982612742565b604082019050919050565b600060208201905081810360008301526127cd81612791565b9050919050565b7f4552433732313a2063616c6c6572206973206e6f7420746f6b656e206f776e6560008201527f72206e6f7220617070726f766564000000000000000000000000000000000000602082015250565b6000612830602e83611f8d565b915061283b826127d4565b604082019050919050565b6000602082019050818103600083015261285f81612823565b9050919050565b7f596f7520616c7265616479206f776e2074686973204e46540000000000000000600082015250565b600061289c601883611f8d565b91506128a782612866565b602082019050919050565b600060208201905081810360008301526128cb8161288f565b9050919050565b7f506c65617365207375626d6974207468652061736b696e672070726963650000600082015250565b6000612908601e83611f8d565b9150612913826128d2565b602082019050919050565b60006020820190508181036000830152612937816128fb565b9050919050565b600081905092915050565b600061295482611f82565b61295e818561293e565b935061296e818560208601611f9e565b80840191505092915050565b60006129868284612949565b915081905092915050565b7f4552433732313a20696e76616c696420746f6b656e2049440000000000000000600082015250565b60006129c7601883611f8d565b91506129d282612991565b602082019050919050565b600060208201905081810360008301526129f6816129ba565b9050919050565b7f4552433732313a2061646472657373207a65726f206973206e6f74206120766160008201527f6c6964206f776e65720000000000000000000000000000000000000000000000602082015250565b6000612a59602983611f8d565b9150612a64826129fd565b604082019050919050565b60006020820190508181036000830152612a8881612a4c565b9050919050565b7f546f6b656e2055524920616c7265616479206578697374730000000000000000600082015250565b6000612ac5601883611f8d565b9150612ad082612a8f565b602082019050919050565b60006020820190508181036000830152612af481612ab8565b9050919050565b7f5072696365206d75737420626520657175616c20746f206c697374696e67207060008201527f7269636500000000000000000000000000000000000000000000000000000000602082015250565b6000612b57602483611f8d565b9150612b6282612afb565b604082019050919050565b60006020820190508181036000830152612b8681612b4a565b9050919050565b6000612b998285612949565b9150612ba58284612949565b91508190509392505050565b7f4552433732313a207472616e736665722066726f6d20696e636f72726563742060008201527f6f776e6572000000000000000000000000000000000000000000000000000000602082015250565b6000612c0d602583611f8d565b9150612c1882612bb1565b604082019050919050565b60006020820190508181036000830152612c3c81612c00565b9050919050565b7f4552433732313a207472616e7366657220746f20746865207a65726f2061646460008201527f7265737300000000000000000000000000000000000000000000000000000000602082015250565b6000612c9f602483611f8d565b9150612caa82612c43565b604082019050919050565b60006020820190508181036000830152612cce81612c92565b9050919050565b7f4e487b7100000000000000000000000000000000000000000000000000000000600052601160045260246000fd5b6000612d0f82612034565b9150612d1a83612034565b9250828203905081811115612d3257612d31612cd5565b5b92915050565b6000612d4382612034565b9150612d4e83612034565b9250828201905080821115612d6657612d65612cd5565b5b92915050565b7f436f756e7465723a2064656372656d656e74206f766572666c6f770000000000600082015250565b6000612da2601b83611f8d565b9150612dad82612d6c565b602082019050919050565b60006020820190508181036000830152612dd181612d95565b9050919050565b7f4552433732313a20617070726f766520746f2063616c6c657200000000000000600082015250565b6000612e0e601983611f8d565b9150612e1982612dd8565b602082019050919050565b60006020820190508181036000830152612e3d81612e01565b9050919050565b7f4552433732313a207472616e7366657220746f206e6f6e20455243373231526560008201527f63656976657220696d706c656d656e7465720000000000000000000000000000602082015250565b6000612ea0603283611f8d565b9150612eab82612e44565b604082019050919050565b60006020820190508181036000830152612ecf81612e93565b9050919050565b7f45524337323155524953746f726167653a2055524920736574206f66206e6f6e60008201527f6578697374656e7420746f6b656e000000000000000000000000000000000000602082015250565b6000612f32602e83611f8d565b9150612f3d82612ed6565b604082019050919050565b60006020820190508181036000830152612f6181612f25565b9050919050565b60008190508160005260206000209050919050565b60006020601f8301049050919050565b600082821b905092915050565b600060088302612fca7fffffffffffffffffffffffffffffffffffffffffffffffffffffffffffffffff82612f8d565b612fd48683612f8d565b95508019841693508086168417925050509392505050565b6000819050919050565b600061301161300c61300784612034565b612fec565b612034565b9050919050565b6000819050919050565b61302b83612ff6565b61303f61303782613018565b848454612f9a565b825550505050565b600090565b613054613047565b61305f818484613022565b505050565b5b818110156130835761307860008261304c565b600181019050613065565b5050565b601f8211156130c85761309981612f68565b6130a284612f7d565b810160208510156130b1578190505b6130c56130bd85612f7d565b830182613064565b50505b505050565b600082821c905092915050565b60006130eb600019846008026130cd565b1980831691505092915050565b600061310483836130da565b9150826002028217905092915050565b61311d82611f82565b67ffffffffffffffff811115613136576131356121bc565b5b613140825461267f565b61314b828285613087565b600060209050601f83116001811461317e576000841561316c578287015190505b61317685826130f8565b8655506131de565b601f19841661318c86612f68565b60005b828110156131b45784890151825560018201915060208501945060208101905061318f565b868310156131d157848901516131cd601f8916826130da565b8355505b6001600288020188555050505b505050505050565b7f50696365206d757374206265206174206c656173742031207765690000000000600082015250565b600061321c601b83611f8d565b9150613227826131e6565b602082019050919050565b6000602082019050818103600083015261324b8161320f565b9050919050565b600060808201905061326760008301876123fa565b61327460208301866123fa565b61328160408301856120c9565b61328e6060830184611f58565b95945050505050565b600081519050919050565b600082825260208201905092915050565b60006132be82613297565b6132c881856132a2565b93506132d8818560208601611f9e565b6132e181611fc8565b840191505092915050565b600060808201905061330160008301876120c9565b61330e60208301866120c9565b61331b60408301856123fa565b818103606083015261332d81846132b3565b905095945050505050565b60008151905061334781611ef3565b92915050565b60006020828403121561336357613362611ebd565b5b600061337184828501613338565b91505092915050565b600061338582612034565b91507fffffffffffffffffffffffffffffffffffffffffffffffffffffffffffffffff82036133b7576133b6612cd5565b5b600182019050919050565b7f4e487b7100000000000000000000000000000000000000000000000000000000600052601260045260246000fd5b60006133fc82612034565b915061340783612034565b925082613417576134166133c2565b5b828204905092915050565b600061342d82612034565b915061343883612034565b925082613448576134476133c2565b5b828206905092915050565b7f4e487b7100000000000000000000000000000000000000000000000000000000600052603260045260246000fd5b7f4552433732313a206d696e7420746f20746865207a65726f2061646472657373600082015250565b60006134b8602083611f8d565b91506134c382613482565b602082019050919050565b600060208201905081810360008301526134e7816134ab565b9050919050565b7f4552433732313a20746f6b656e20616c7265616479206d696e74656400000000600082015250565b6000613524601c83611f8d565b915061352f826134ee565b602082019050919050565b6000602082019050818103600083015261355381613517565b905091905056fea264697066735822122011f4fba15a1c6e49681ad5cec467dd845a67fc88788c54b81a9d72bba6181c2d64736f6c63430008100033",
  "immutableReferences": {},
  "source": "// SPDX-License-Identifier: MIT\npragma solidity >=0.4.22 <0.9.0;\n\nimport \"@openzeppelin/contracts/token/ERC721/extensions/ERC721URIStorage.sol\";\nimport \"@openzeppelin/contracts/utils/Counters.sol\";\n\ncontract NftMarket is ERC721URIStorage {\n    using Counters for Counters.Counter;\n\n    struct NftItem {\n        uint256 tokenId;\n        uint256 price;\n        address creator;\n        bool isListed;\n    }\n\n    uint256 public listingPrice = 0.025 ether;\n\n    Counters.Counter private _listedItems;\n    Counters.Counter private _tokenIds;\n\n    mapping(string => bool) private _usedTokenURIs;\n    mapping(uint256 => NftItem) private _idToNftItem;\n\n    event NftItemCreated(\n        uint256 tokenId,\n        uint256 price,\n        address creator,\n        bool isListed\n    );\n\n    constructor() ERC721(\"CreaturesNFT\", \"CNFT\") {}\n\n    function getNftItem(uint256 tokenId) public view returns (NftItem memory) {\n        return _idToNftItem[tokenId];\n    }\n\n    function listedItemsCount() public view returns (uint256) {\n        return _listedItems.current();\n    }\n\n    function tokenURIExists(string memory tokenURI) public view returns (bool) {\n        return _usedTokenURIs[tokenURI] == true;\n    }\n\n    function mintToken(string memory tokenURI, uint256 price)\n        public\n        payable\n        returns (uint256)\n    {\n        require(!tokenURIExists(tokenURI), \"Token URI already exists\");\n        require(\n            msg.value == listingPrice,\n            \"Price must be equal to listing price\"\n        );\n\n        _tokenIds.increment();\n        _listedItems.increment();\n\n        uint256 newTokenId = _tokenIds.current();\n\n        _safeMint(msg.sender, newTokenId);\n        _setTokenURI(newTokenId, tokenURI);\n        _createNftItem(newTokenId, price);\n        _usedTokenURIs[tokenURI] = true;\n\n        return newTokenId;\n    }\n\n    function buyNft(uint256 tokenId) public payable {\n        uint256 price = _idToNftItem[tokenId].price;\n        address owner = ERC721.ownerOf(tokenId);\n\n        require(msg.sender != owner, \"You already own this NFT\");\n        require(msg.value == price, \"Please submit the asking price\");\n\n        _idToNftItem[tokenId].isListed = false;\n        _listedItems.decrement();\n\n        _transfer(owner, msg.sender, tokenId);\n        payable(owner).transfer(msg.value);\n    }\n\n    function _createNftItem(uint256 tokenId, uint256 price) private {\n        require(price > 0, \"Pice must be at least 1 wei\");\n\n        _idToNftItem[tokenId] = NftItem(tokenId, price, msg.sender, true);\n\n        emit NftItemCreated(tokenId, price, msg.sender, true);\n    }\n}\n",
  "sourcePath": "/home/andreimihaila/blockchain/nft-marketplace/contracts/NftMarket.sol",
  "compiler": {
    "name": "solc",
    "version": "0.8.16+commit.07a7930e.Emscripten.clang"
  },
  "schemaVersion": "3.4.9",
  "updatedAt": "2022-09-05T12:25:35.679Z",
  "networkType": "ethereum",
  "devdoc": {
    "kind": "dev",
    "methods": {
      "approve(address,uint256)": {
        "details": "See {IERC721-approve}."
      },
      "balanceOf(address)": {
        "details": "See {IERC721-balanceOf}."
      },
      "getApproved(uint256)": {
        "details": "See {IERC721-getApproved}."
      },
      "isApprovedForAll(address,address)": {
        "details": "See {IERC721-isApprovedForAll}."
      },
      "name()": {
        "details": "See {IERC721Metadata-name}."
      },
      "ownerOf(uint256)": {
        "details": "See {IERC721-ownerOf}."
      },
      "safeTransferFrom(address,address,uint256)": {
        "details": "See {IERC721-safeTransferFrom}."
      },
      "safeTransferFrom(address,address,uint256,bytes)": {
        "details": "See {IERC721-safeTransferFrom}."
      },
      "setApprovalForAll(address,bool)": {
        "details": "See {IERC721-setApprovalForAll}."
      },
      "supportsInterface(bytes4)": {
        "details": "See {IERC165-supportsInterface}."
      },
      "symbol()": {
        "details": "See {IERC721Metadata-symbol}."
      },
      "tokenURI(uint256)": {
        "details": "See {IERC721Metadata-tokenURI}."
      },
      "transferFrom(address,address,uint256)": {
        "details": "See {IERC721-transferFrom}."
      }
    },
    "version": 1
  },
  "userdoc": {
    "kind": "user",
    "methods": {},
    "version": 1
  }
}